:060000000A128A11FC2F18
:100E9C001630F0000030F1000130F2000030F300A9
:100EAC000A128A1184270A128A111A30F6005E304F
:100EBC00F5006E30F400F40B612FF50B612FF60B7F
:100ECC00612F00001630F0000030F1000030F2000D
:100EDC00F3000A128A1184270A128A111A30F600BA
:100EEC005E30F5006E30F400F40B7A2FF50B7A2F90
:100EFC00F60B7A2F00000A128A11002813307006A4
:100F0C007104031D932F721C8F2F8312031308146B
:100F1C0008008312031308100800143070067104C3
:100F2C00031DA22F721C9E2F83120313881408001A
:100F3C008312031388100800153070067104031D0A
:100F4C00B12F721CAD2F83120313081508008312E6
:100F5C00031308110800163070067104031DC02F0E
:100F6C00721CBC2F83120313881508008312031301
:100F7C00881108001B3070067104031DCF2F721CE2
:100F8C00CB2F8312031308160800831203130812C5
:100F9C0008001C3070067104031DDE2F721CDA2F42
:100FAC008312031388160800831203138812080097
:100FBC001D3070067104031DED2F721CE92F831276
:100FCC0003130817080083120313081308001E30BC
:100FDC0070067104031D0800721CF82F8312031392
:100FEC0088170800831203138813080083010A1260
:040FFC008A114E2FD9
:02400E00E2E0EE
:00000001FF
